{
  "contractName": "Quiz",
  "abi": [
    {
      "inputs": [
        {
          "internalType": "address",
          "name": "_tokenAddress",
          "type": "address"
        },
        {
          "internalType": "address",
          "name": "_treasury",
          "type": "address"
        }
      ],
      "stateMutability": "nonpayable",
      "type": "constructor"
    },
    {
      "anonymous": false,
      "inputs": [
        {
          "indexed": true,
          "internalType": "address",
          "name": "previousOwner",
          "type": "address"
        },
        {
          "indexed": true,
          "internalType": "address",
          "name": "newOwner",
          "type": "address"
        }
      ],
      "name": "OwnershipTransferred",
      "type": "event"
    },
    {
      "anonymous": false,
      "inputs": [
        {
          "indexed": false,
          "internalType": "address",
          "name": "from",
          "type": "address"
        },
        {
          "indexed": false,
          "internalType": "address",
          "name": "to",
          "type": "address"
        },
        {
          "indexed": false,
          "internalType": "uint256",
          "name": "tokens",
          "type": "uint256"
        }
      ],
      "name": "TokenTransfer",
      "type": "event"
    },
    {
      "inputs": [
        {
          "internalType": "address",
          "name": "",
          "type": "address"
        }
      ],
      "name": "UserTokensBalance",
      "outputs": [
        {
          "internalType": "uint256",
          "name": "",
          "type": "uint256"
        }
      ],
      "stateMutability": "view",
      "type": "function"
    },
    {
      "inputs": [],
      "name": "maturityPeriod",
      "outputs": [
        {
          "internalType": "uint256",
          "name": "",
          "type": "uint256"
        }
      ],
      "stateMutability": "view",
      "type": "function"
    },
    {
      "inputs": [],
      "name": "owner",
      "outputs": [
        {
          "internalType": "address",
          "name": "",
          "type": "address"
        }
      ],
      "stateMutability": "view",
      "type": "function"
    },
    {
      "inputs": [
        {
          "internalType": "address",
          "name": "",
          "type": "address"
        }
      ],
      "name": "quizAnswered",
      "outputs": [
        {
          "internalType": "bool",
          "name": "",
          "type": "bool"
        }
      ],
      "stateMutability": "view",
      "type": "function"
    },
    {
      "inputs": [],
      "name": "renounceOwnership",
      "outputs": [],
      "stateMutability": "nonpayable",
      "type": "function"
    },
    {
      "inputs": [],
      "name": "token",
      "outputs": [
        {
          "internalType": "contract AccuCoin",
          "name": "",
          "type": "address"
        }
      ],
      "stateMutability": "view",
      "type": "function"
    },
    {
      "inputs": [
        {
          "internalType": "address",
          "name": "",
          "type": "address"
        }
      ],
      "name": "tokensInvested",
      "outputs": [
        {
          "internalType": "uint256",
          "name": "",
          "type": "uint256"
        }
      ],
      "stateMutability": "view",
      "type": "function"
    },
    {
      "inputs": [
        {
          "internalType": "address",
          "name": "newOwner",
          "type": "address"
        }
      ],
      "name": "transferOwnership",
      "outputs": [],
      "stateMutability": "nonpayable",
      "type": "function"
    },
    {
      "inputs": [],
      "name": "treasury",
      "outputs": [
        {
          "internalType": "address",
          "name": "",
          "type": "address"
        }
      ],
      "stateMutability": "view",
      "type": "function"
    },
    {
      "inputs": [
        {
          "internalType": "address",
          "name": "_player",
          "type": "address"
        },
        {
          "internalType": "uint256",
          "name": "_amount",
          "type": "uint256"
        }
      ],
      "name": "initailTokensToParticipate",
      "outputs": [],
      "stateMutability": "payable",
      "type": "function"
    },
    {
      "inputs": [
        {
          "internalType": "uint256",
          "name": "_investAmount",
          "type": "uint256"
        },
        {
          "internalType": "uint256",
          "name": "_questionID",
          "type": "uint256"
        }
      ],
      "name": "participateInQuiz",
      "outputs": [],
      "stateMutability": "payable",
      "type": "function"
    },
    {
      "inputs": [
        {
          "internalType": "bool",
          "name": "answer",
          "type": "bool"
        },
        {
          "internalType": "uint256",
          "name": "_rewardMultiplier",
          "type": "uint256"
        }
      ],
      "name": "answerQuiz",
      "outputs": [],
      "stateMutability": "nonpayable",
      "type": "function"
    },
    {
      "inputs": [],
      "name": "checkAnswer",
      "outputs": [
        {
          "internalType": "bool",
          "name": "",
          "type": "bool"
        }
      ],
      "stateMutability": "view",
      "type": "function"
    },
    {
      "inputs": [],
      "name": "checkTokens",
      "outputs": [
        {
          "internalType": "uint256",
          "name": "",
          "type": "uint256"
        }
      ],
      "stateMutability": "view",
      "type": "function"
    }
  ],
  "bytecode": "0x608060405260046003553480156200001657600080fd5b5060405162002738380380620027388339810160408190526200003991620001c7565b6200005f6200005064010000000062000148810204565b6401000000006200014c810204565b600160a060020a038216620000d4576040517f08c379a000000000000000000000000000000000000000000000000000000000815260206004820152601b60248201527f5175697a3a20496e76616c696420746f6b656e20616464726573730000000000604482015260640160405180910390fd5b6a52b7d2dcc80cd2e4000000604051620000ee906200019c565b908152602001604051809103906000f08015801562000111573d6000803e3d6000fd5b5060018054600160a060020a03928316600160a060020a0319918216179091556002805493909216921691909117905550620001ff565b3390565b60008054600160a060020a03838116600160a060020a0319831681178455604051919092169283917f8be0079c531659141344cd1fd0a4f28419497f9722a3daafe3b4186f6b6457e09190a35050565b6117b38062000f8583390190565b8051600160a060020a0381168114620001c257600080fd5b919050565b60008060408385031215620001db57600080fd5b620001e683620001aa565b9150620001f660208401620001aa565b90509250929050565b610d76806200020f6000396000f3fe6080604052600436106100fa576000357c01000000000000000000000000000000000000000000000000000000009004806387222b7f1161009c57806390c57ec01161007657806390c57ec014610292578063f2fde38b146102a5578063f3404297146102c5578063fc0c546a146102d857600080fd5b806387222b7f1461022757806387f4a106146102475780638da5cb5b1461027457600080fd5b80635f1faee1116100d85780635f1faee11461018657806361d027b3146101b6578063715018a6146101ee578063771c21f01461020557600080fd5b806336012d44146100ff5780633a60ece7146101285780634f4151c214610155575b600080fd5b34801561010b57600080fd5b5061011560035481565b6040519081526020015b60405180910390f35b34801561013457600080fd5b50610115610143366004610bb8565b60076020526000908152604090205481565b34801561016157600080fd5b503360009081526008602052604090205460ff165b604051901515815260200161011f565b34801561019257600080fd5b506101766101a1366004610bb8565b60086020526000908152604090205460ff1681565b3480156101c257600080fd5b506002546101d690600160a060020a031681565b604051600160a060020a03909116815260200161011f565b3480156101fa57600080fd5b506102036102f8565b005b34801561021157600080fd5b5033600090815260066020526040902054610115565b34801561023357600080fd5b50610203610242366004610be8565b61030c565b34801561025357600080fd5b50610115610262366004610bb8565b60066020526000908152604090205481565b34801561028057600080fd5b50600054600160a060020a03166101d6565b6102036102a0366004610c14565b610520565b3480156102b157600080fd5b506102036102c0366004610bb8565b610864565b6102036102d3366004610c30565b6108f7565b3480156102e457600080fd5b506001546101d690600160a060020a031681565b610300610ae2565b61030a6000610b3f565b565b33600090815260076020526040902054600111156103745760405160e560020a62461bcd02815260206004820152601860248201527f5175697a3a204e6f20746f6b656e7320496e766573746564000000000000000060448201526064015b60405180910390fd5b3360009081526008602052604090205460ff16156103d75760405160e560020a62461bcd02815260206004820152601560248201527f5175697a20616c726561647920616e7377657265640000000000000000000000604482015260640161036b565b81151560010361050257336000908152600760205260408120546103fc908390610c81565b6001546002546040517f23b872dd000000000000000000000000000000000000000000000000000000008152929350600160a060020a03918216926323b872dd9261044f92169033908690600401610c9e565b6020604051808303816000875af115801561046e573d6000803e3d6000fd5b505050506040513d601f19601f820116820180604052508101906104929190610cc2565b5033600090815260066020526040812080548392906104b2908490610cdf565b90915550506002546040517fd0ed88a3f042c6bbb1e3ea406079b5f2b4b198afccaa535d837f4c63abbc4de6916104f891600160a060020a039091169033908590610c9e565b60405180910390a1505b5050336000908152600860205260409020805460ff19166001179055565b610528610ae2565b600160a060020a038216600090815260046020526040902060018210156105945760405160e560020a62461bcd02815260206004820152601a60248201527f5175697a3a20496e73756666696369656e74207061796d656e74000000000000604482015260640161036b565b600160a060020a0383166105ed5760405160e560020a62461bcd02815260206004820152601560248201527f5175697a3a20496e76616c696420616464726573730000000000000000000000604482015260640161036b565b80600101546000036106da5742815560018082018054600090610611908490610cdf565b90915550506001546040517fa9059cbb000000000000000000000000000000000000000000000000000000008152600160a060020a038581166004830152602482018590529091169063a9059cbb906044016020604051808303816000875af1158015610682573d6000803e3d6000fd5b505050506040513d601f19601f820116820180604052508101906106a69190610cc2565b50600160a060020a038316600090815260066020526040812080548492906106cf908490610cdf565b909155506108249050565b6003548154610e10906106ed9042610cf2565b6106f79190610d05565b10156107485760405160e560020a62461bcd02815260206004820152601f60248201527f5175697a3a2072657175697265642074696d65206e6f7420656c617073656400604482015260640161036b565b42815560018082018054600090610760908490610cdf565b90915550506001546040517fa9059cbb000000000000000000000000000000000000000000000000000000008152600160a060020a038581166004830152602482018590529091169063a9059cbb906044016020604051808303816000875af11580156107d1573d6000803e3d6000fd5b505050506040513d601f19601f820116820180604052508101906107f59190610cc2565b50600160a060020a0383166000908152600660205260408120805484929061081e908490610cdf565b90915550505b7fd0ed88a3f042c6bbb1e3ea406079b5f2b4b198afccaa535d837f4c63abbc4de633848460405161085793929190610c9e565b60405180910390a1505050565b61086c610ae2565b600160a060020a0381166108eb5760405160e560020a62461bcd02815260206004820152602660248201527f4f776e61626c653a206e6577206f776e657220697320746865207a65726f206160448201527f6464726573730000000000000000000000000000000000000000000000000000606482015260840161036b565b6108f481610b3f565b50565b336000908152600560205260409020600183101561095a5760405160e560020a62461bcd02815260206004820152601a60248201527f5175697a3a20496e73756666696369656e74207061796d656e74000000000000604482015260640161036b565b600181015460ff16156109b25760405160e560020a62461bcd02815260206004820152601f60248201527f5175697a3a207175657374696f6e20616c726561647920617474656e64656400604482015260640161036b565b6001546002546040517f23b872dd000000000000000000000000000000000000000000000000000000008152600160a060020a03928316926323b872dd92610a04923392909116908890600401610c9e565b6020604051808303816000875af1158015610a23573d6000803e3d6000fd5b505050506040513d601f19601f82011682018060405250810190610a479190610cc2565b503360009081526006602052604081208054859290610a67908490610cf2565b90915550503360009081526007602052604081208054859290610a8b908490610cdf565b90915550508181556001808201805460ff191690911790556002546040517fd0ed88a3f042c6bbb1e3ea406079b5f2b4b198afccaa535d837f4c63abbc4de691610857913391600160a060020a0316908790610c9e565b600054600160a060020a0316331461030a5760405160e560020a62461bcd02815260206004820181905260248201527f4f776e61626c653a2063616c6c6572206973206e6f7420746865206f776e6572604482015260640161036b565b60008054600160a060020a0383811673ffffffffffffffffffffffffffffffffffffffff19831681178455604051919092169283917f8be0079c531659141344cd1fd0a4f28419497f9722a3daafe3b4186f6b6457e09190a35050565b8035600160a060020a0381168114610bb357600080fd5b919050565b600060208284031215610bca57600080fd5b610bd382610b9c565b9392505050565b80151581146108f457600080fd5b60008060408385031215610bfb57600080fd5b8235610c0681610bda565b946020939093013593505050565b60008060408385031215610c2757600080fd5b610c0683610b9c565b60008060408385031215610c4357600080fd5b50508035926020909101359150565b7f4e487b7100000000000000000000000000000000000000000000000000000000600052601160045260246000fd5b8082028115828204841417610c9857610c98610c52565b92915050565b600160a060020a039384168152919092166020820152604081019190915260600190565b600060208284031215610cd457600080fd5b8151610bd381610bda565b80820180821115610c9857610c98610c52565b81810381811115610c9857610c98610c52565b600082610d3b577f4e487b7100000000000000000000000000000000000000000000000000000000600052601260045260246000fd5b50049056fea264697066735822122030ddfe7b09f35b600620e6f0e87600b909b4be2f1a51098a2f6b14f1709f587d64736f6c6343000811003360806040523480156200001157600080fd5b50604051620017b3380380620017b38339810160408190526200003491620002d6565b6040518060400160405280600981526020017f4143435520434f494e00000000000000000000000000000000000000000000008152506040518060400160405280600481526020017f41434355000000000000000000000000000000000000000000000000000000008152508160039081620000b19190620003c6565b506004620000c08282620003c6565b50620000db91506000905033640100000000620000f7810204565b620000f0338264010000000062000196810204565b50620004d4565b6200010c8282640100000000620002a0810204565b62000192576000828152600560209081526040808320600160a060020a03851684529091529020805460ff1916600117905562000151640100000000620002cd810204565b600160a060020a031681600160a060020a0316837f2f8788117e7eff1d82e926ec794901d17c78024a50270940304540a733656f0d60405160405180910390a45b5050565b600160a060020a0382166200020b576040517f08c379a000000000000000000000000000000000000000000000000000000000815260206004820152601f60248201527f45524332303a206d696e7420746f20746865207a65726f206164647265737300604482015260640160405180910390fd5b6200022260008383640100000000620002d1810204565b806002600082825462000236919062000499565b9091555050600160a060020a038216600081815260208181526040808320805486019055518481527fddf252ad1be2c89b69c2b068fc378daa952ba7f163c4a11628f55a4df523b3ef910160405180910390a36200019260008383640100000000620002d1810204565b6000828152600560209081526040808320600160a060020a038516845290915290205460ff165b92915050565b3390565b505050565b600060208284031215620002e957600080fd5b5051919050565b7f4e487b7100000000000000000000000000000000000000000000000000000000600052604160045260246000fd5b6002810460018216806200033457607f821691505b6020821081036200036e577f4e487b7100000000000000000000000000000000000000000000000000000000600052602260045260246000fd5b50919050565b601f821115620002d1576000818152602081206020601f860104810160208610156200039d5750805b6020601f860104820191505b81811015620003be57828155600101620003a9565b505050505050565b815167ffffffffffffffff811115620003e357620003e3620002f0565b620003fb81620003f484546200031f565b8462000374565b602080601f8311600181146200043757600084156200041a5750858301515b60028086026008870290910a6000190419821617865550620003be565b600085815260208120601f198616915b82811015620004685788860151825594840194600190910190840162000447565b50858210156200048957878501516008601f88160260020a60001904191681555b5050505050600202600101905550565b80820180821115620002c7577f4e487b7100000000000000000000000000000000000000000000000000000000600052601160045260246000fd5b6112cf80620004e46000396000f3fe608060405234801561001057600080fd5b506004361061015f576000357c01000000000000000000000000000000000000000000000000000000009004806370a08231116100d5578063a457c2d711610099578063a457c2d7146102b8578063a9059cbb146102cb578063d5391393146102de578063d547741f146102f3578063dd62ed3e14610306578063f80f5dd51461031957600080fd5b806370a082311461025957806391d148541461028257806395d89b41146102955780639c7f33151461029d578063a217fddf146102b057600080fd5b8063248a9ca311610127578063248a9ca3146101d95780632f2ff15d146101fc578063313ce5671461021157806336568abe14610220578063395093511461023357806340c10f191461024657600080fd5b806301ffc9a71461016457806306fdde031461018c578063095ea7b3146101a157806318160ddd146101b457806323b872dd146101c6575b600080fd5b610177610172366004610f8d565b61032c565b60405190151581526020015b60405180910390f35b6101946103bf565b6040516101839190610ff0565b6101776101af36600461103f565b610451565b6002545b604051908152602001610183565b6101776101d4366004611069565b610469565b6101b86101e73660046110a5565b60009081526005602052604090206001015490565b61020f61020a3660046110be565b61048d565b005b60405160128152602001610183565b61020f61022e3660046110be565b6104b7565b61017761024136600461103f565b61054b565b61020f61025436600461103f565b61056d565b6101b86102673660046110ea565b600160a060020a031660009081526020819052604090205490565b6101776102903660046110be565b61058f565b6101946105ba565b61020f6102ab3660046110ea565b6105c9565b6101b8600081565b6101776102c636600461103f565b61060b565b6101776102d936600461103f565b6106a1565b6101b860008051602061127a83398151915281565b61020f6103013660046110be565b6106af565b6101b8610314366004611105565b6106d4565b61020f6103273660046110ea565b6106ff565b60007bffffffffffffffffffffffffffffffffffffffffffffffffffffffff1982167f7965db0b0000000000000000000000000000000000000000000000000000000014806103b957507f01ffc9a7000000000000000000000000000000000000000000000000000000007bffffffffffffffffffffffffffffffffffffffffffffffffffffffff198316145b92915050565b6060600380546103ce9061112f565b80601f01602080910402602001604051908101604052809291908181526020018280546103fa9061112f565b80156104475780601f1061041c57610100808354040283529160200191610447565b820191906000526020600020905b81548152906001019060200180831161042a57829003601f168201915b5050505050905090565b60003361045f818585610741565b5060019392505050565b60003361047785828561089f565b61048285858561091c565b506001949350505050565b6000828152600560205260409020600101546104a881610b12565b6104b28383610b1f565b505050565b600160a060020a038116331461053d5760405160e560020a62461bcd02815260206004820152602f60248201527f416363657373436f6e74726f6c3a2063616e206f6e6c792072656e6f756e636560448201527f20726f6c657320666f722073656c66000000000000000000000000000000000060648201526084015b60405180910390fd5b6105478282610ba5565b5050565b60003361045f81858561055e83836106d4565b6105689190611185565b610741565b60008051602061127a83398151915261058581610b12565b6104b28383610c0c565b6000918252600560209081526040808420600160a060020a0393909316845291905290205460ff1690565b6060600480546103ce9061112f565b7f44454641554c545f41444d494e5f524f4c4500000000000000000000000000006105f381610b12565b61054760008051602061127a83398151915283610ba5565b6000338161061982866106d4565b9050838110156106945760405160e560020a62461bcd02815260206004820152602560248201527f45524332303a2064656372656173656420616c6c6f77616e63652062656c6f7760448201527f207a65726f0000000000000000000000000000000000000000000000000000006064820152608401610534565b6104828286868403610741565b60003361045f81858561091c565b6000828152600560205260409020600101546106ca81610b12565b6104b28383610ba5565b600160a060020a03918216600090815260016020908152604080832093909416825291909152205490565b7f44454641554c545f41444d494e5f524f4c45000000000000000000000000000061072981610b12565b61054760008051602061127a83398151915283610b1f565b600160a060020a0383166107bf5760405160e560020a62461bcd028152602060048201526024808201527f45524332303a20617070726f76652066726f6d20746865207a65726f2061646460448201527f72657373000000000000000000000000000000000000000000000000000000006064820152608401610534565b600160a060020a03821661083e5760405160e560020a62461bcd02815260206004820152602260248201527f45524332303a20617070726f766520746f20746865207a65726f20616464726560448201527f73730000000000000000000000000000000000000000000000000000000000006064820152608401610534565b600160a060020a0383811660008181526001602090815260408083209487168084529482529182902085905590518481527f8c5be1e5ebec7d5bd14f71427d1e84f3dd0314c0f7b2291e5b200ac8c7c3b925910160405180910390a3505050565b60006108ab84846106d4565b9050600019811461091657818110156109095760405160e560020a62461bcd02815260206004820152601d60248201527f45524332303a20696e73756666696369656e7420616c6c6f77616e63650000006044820152606401610534565b6109168484848403610741565b50505050565b600160a060020a03831661099b5760405160e560020a62461bcd02815260206004820152602560248201527f45524332303a207472616e736665722066726f6d20746865207a65726f20616460448201527f64726573730000000000000000000000000000000000000000000000000000006064820152608401610534565b600160a060020a038216610a1a5760405160e560020a62461bcd02815260206004820152602360248201527f45524332303a207472616e7366657220746f20746865207a65726f206164647260448201527f65737300000000000000000000000000000000000000000000000000000000006064820152608401610534565b600160a060020a03831660009081526020819052604090205481811015610aac5760405160e560020a62461bcd02815260206004820152602660248201527f45524332303a207472616e7366657220616d6f756e742065786365656473206260448201527f616c616e636500000000000000000000000000000000000000000000000000006064820152608401610534565b600160a060020a03848116600081815260208181526040808320878703905593871680835291849020805487019055925185815290927fddf252ad1be2c89b69c2b068fc378daa952ba7f163c4a11628f55a4df523b3ef910160405180910390a3610916565b610b1c8133610cce565b50565b610b29828261058f565b610547576000828152600560209081526040808320600160a060020a03851684529091529020805460ff19166001179055610b613390565b600160a060020a031681600160a060020a0316837f2f8788117e7eff1d82e926ec794901d17c78024a50270940304540a733656f0d60405160405180910390a45050565b610baf828261058f565b15610547576000828152600560209081526040808320600160a060020a0385168085529252808320805460ff1916905551339285917ff6391f5c32d9c69d2a47ea670b442974b53935d1edc7fd64eb21e047a839171b9190a45050565b600160a060020a038216610c655760405160e560020a62461bcd02815260206004820152601f60248201527f45524332303a206d696e7420746f20746865207a65726f2061646472657373006044820152606401610534565b8060026000828254610c779190611185565b9091555050600160a060020a038216600081815260208181526040808320805486019055518481527fddf252ad1be2c89b69c2b068fc378daa952ba7f163c4a11628f55a4df523b3ef910160405180910390a35050565b610cd8828261058f565b61054757610ce581610d2a565b610cf0836020610d3c565b604051602001610d01929190611198565b60408051601f198184030181529082905260e560020a62461bcd02825261053491600401610ff0565b60606103b9600160a060020a03831660145b60606000610d4b836002611219565b610d56906002611185565b67ffffffffffffffff811115610d6e57610d6e611230565b6040519080825280601f01601f191660200182016040528015610d98576020820181803683370190505b5090507f300000000000000000000000000000000000000000000000000000000000000081600081518110610dcf57610dcf611249565b60200101907effffffffffffffffffffffffffffffffffffffffffffffffffffffffffffff1916908160001a9053507f780000000000000000000000000000000000000000000000000000000000000081600181518110610e3257610e32611249565b60200101907effffffffffffffffffffffffffffffffffffffffffffffffffffffffffffff1916908160001a9053506000610e6e846002611219565b610e79906001611185565b90505b6001811115610f34577f303132333435363738396162636465660000000000000000000000000000000085600f1660108110610eba57610eba611249565b1a7f010000000000000000000000000000000000000000000000000000000000000002828281518110610eef57610eef611249565b60200101907effffffffffffffffffffffffffffffffffffffffffffffffffffffffffffff1916908160001a905350601090940493610f2d81611262565b9050610e7c565b508315610f865760405160e560020a62461bcd02815260206004820181905260248201527f537472696e67733a20686578206c656e67746820696e73756666696369656e746044820152606401610534565b9392505050565b600060208284031215610f9f57600080fd5b81357bffffffffffffffffffffffffffffffffffffffffffffffffffffffff1981168114610f8657600080fd5b60005b83811015610fe7578181015183820152602001610fcf565b50506000910152565b602081526000825180602084015261100f816040850160208701610fcc565b601f01601f19169190910160400192915050565b8035600160a060020a038116811461103a57600080fd5b919050565b6000806040838503121561105257600080fd5b61105b83611023565b946020939093013593505050565b60008060006060848603121561107e57600080fd5b61108784611023565b925061109560208501611023565b9150604084013590509250925092565b6000602082840312156110b757600080fd5b5035919050565b600080604083850312156110d157600080fd5b823591506110e160208401611023565b90509250929050565b6000602082840312156110fc57600080fd5b610f8682611023565b6000806040838503121561111857600080fd5b61112183611023565b91506110e160208401611023565b60028104600182168061114357607f821691505b6020821081036111665760e060020a634e487b7102600052602260045260246000fd5b50919050565b60e060020a634e487b7102600052601160045260246000fd5b808201808211156103b9576103b961116c565b7f416363657373436f6e74726f6c3a206163636f756e74200000000000000000008152600083516111d0816017850160208801610fcc565b7f206973206d697373696e6720726f6c6520000000000000000000000000000000601791840191820152835161120d816028840160208801610fcc565b01602801949350505050565b80820281158282048414176103b9576103b961116c565b60e060020a634e487b7102600052604160045260246000fd5b60e060020a634e487b7102600052603260045260246000fd5b6000816112715761127161116c565b50600019019056fe9f2df0fed2c77648de5860a4cc508cd0818c85b8b8a1ab4ceeef8d981c8956a6a264697066735822122085e2f61d459ca75c9790f73c3e12d973b44ee69d7f40bb3712c14d76b5cbf4fe64736f6c63430008110033",
  "immutableReferences": {},
  "source": "// SPDX-License-Identifier: MIT\npragma solidity ^0.8.16;\nimport \"@openzeppelin/contracts/access/Ownable.sol\";\nimport \"@openzeppelin/contracts/token/ERC20/IERC20.sol\";\nimport \"./AccuCoin.sol\";\n\ncontract Quiz is Ownable {\n    AccuCoin public token;\n    address public treasury;\n    //uint256 public questionID;\n    struct ClaimState {\n        uint256 initiateTime;\n        uint256 initiateCount;\n    }\n    struct QuestionState {\n        uint256 questionID;\n        bool visible;\n    }\n    uint256 public maturityPeriod = 4; //4hrs\n    mapping(address => ClaimState) private UserClaimStates;\n    mapping(address => QuestionState) private QuestionToUser;\n    mapping(address => uint) public UserTokensBalance;\n    mapping(address => uint) public tokensInvested;\n    mapping(address => bool) public quizAnswered;\n\n    event TokenTransfer(address from, address to, uint tokens);\n\n    constructor(address _tokenAddress, address _treasury) Ownable() {\n        require(_tokenAddress != address(0), \"Quiz: Invalid token address\");\n        token = new AccuCoin(100000000 * 1e18);\n        treasury = _treasury;\n    }\n\n    function initailTokensToParticipate(\n        address _player,\n        uint256 _amount\n    ) external payable onlyOwner {\n        ClaimState storage claimState = UserClaimStates[_player];\n\n        require(_amount >= 1, \"Quiz: Insufficient payment\");\n        require(_player != address(0), \"Quiz: Invalid address\");\n        if (claimState.initiateCount == 0) {\n            claimState.initiateTime = block.timestamp;\n            claimState.initiateCount += 1;\n            token.transfer(_player, _amount);\n            UserTokensBalance[_player] += _amount;\n        } else {\n            require(\n                ((block.timestamp - claimState.initiateTime) / 1 hours) >=\n                    maturityPeriod,\n                \"Quiz: required time not elapsed\"\n            );\n            claimState.initiateTime = block.timestamp;\n            claimState.initiateCount += 1;\n\n            token.transfer(_player, _amount);\n            UserTokensBalance[_player] += _amount;\n        }\n\n        emit TokenTransfer(msg.sender, _player, _amount);\n    }\n\n    function participateInQuiz(\n        uint256 _investAmount,\n        uint256 _questionID\n    ) public payable {\n        QuestionState storage questionState = QuestionToUser[msg.sender];\n        require(_investAmount >= 1, \"Quiz: Insufficient payment\");\n        require(\n            questionState.visible == false,\n            \"Quiz: question already attended\"\n        );\n\n        token.transferFrom(msg.sender, treasury, _investAmount);\n        UserTokensBalance[msg.sender] -= _investAmount;\n        tokensInvested[msg.sender] += _investAmount;\n        questionState.questionID = _questionID;\n        questionState.visible = true;\n        emit TokenTransfer(msg.sender, treasury, _investAmount);\n    }\n\n    function answerQuiz(bool answer, uint256 _rewardMultiplier) public {\n        require(tokensInvested[msg.sender] >= 1, \"Quiz: No tokens Invested\");\n        require(!quizAnswered[msg.sender], \"Quiz already answered\");\n\n        if (answer == true) {\n            uint256 tokensReward = tokensInvested[msg.sender] *\n                _rewardMultiplier;\n            token.transferFrom(treasury, msg.sender, tokensReward);\n            UserTokensBalance[msg.sender] += tokensReward;\n            emit TokenTransfer(treasury, msg.sender, tokensReward);\n        }\n        quizAnswered[msg.sender] = true;\n    }\n\n    function checkAnswer() public view returns (bool) {\n        return quizAnswered[msg.sender];\n    }\n\n    function checkTokens() public view returns (uint) {\n        return UserTokensBalance[msg.sender];\n    }\n}\n",
  "sourcePath": "/home/beno/Desktop/Projects/rnr/Tokenopati/contracts/Quiz.sol",
  "compiler": {
    "name": "solc",
    "version": "0.8.17+commit.8df45f5f.Emscripten.clang"
  },
  "schemaVersion": "3.4.6",
  "updatedAt": "2023-01-23T15:04:05.740Z",
  "devdoc": {
    "kind": "dev",
    "methods": {
      "owner()": {
        "details": "Returns the address of the current owner."
      },
      "renounceOwnership()": {
        "details": "Leaves the contract without owner. It will not be possible to call `onlyOwner` functions anymore. Can only be called by the current owner. NOTE: Renouncing ownership will leave the contract without an owner, thereby removing any functionality that is only available to the owner."
      },
      "transferOwnership(address)": {
        "details": "Transfers ownership of the contract to a new account (`newOwner`). Can only be called by the current owner."
      }
    },
    "version": 1
  },
  "userdoc": {
    "kind": "user",
    "methods": {},
    "version": 1
  }
}